{
  "_format": "hh-sol-artifact-1",
  "contractName": "NFTContract",
  "sourceName": "contracts/nft-contract/NFTContract.sol",
  "abi": [
    {
      "inputs": [
        {
          "internalType": "string",
          "name": "name",
          "type": "string"
        },
        {
          "internalType": "string",
          "name": "symbol",
          "type": "string"
        }
      ],
      "stateMutability": "nonpayable",
      "type": "constructor"
    },
    {
      "anonymous": false,
      "inputs": [
        {
          "indexed": true,
          "internalType": "address",
          "name": "owner",
          "type": "address"
        },
        {
          "indexed": true,
          "internalType": "address",
          "name": "approved",
          "type": "address"
        },
        {
          "indexed": true,
          "internalType": "uint256",
          "name": "tokenId",
          "type": "uint256"
        }
      ],
      "name": "Approval",
      "type": "event"
    },
    {
      "anonymous": false,
      "inputs": [
        {
          "indexed": true,
          "internalType": "address",
          "name": "owner",
          "type": "address"
        },
        {
          "indexed": true,
          "internalType": "address",
          "name": "operator",
          "type": "address"
        },
        {
          "indexed": false,
          "internalType": "bool",
          "name": "approved",
          "type": "bool"
        }
      ],
      "name": "ApprovalForAll",
      "type": "event"
    },
    {
      "anonymous": false,
      "inputs": [
        {
          "indexed": true,
          "internalType": "bytes32",
          "name": "role",
          "type": "bytes32"
        },
        {
          "indexed": true,
          "internalType": "bytes32",
          "name": "previousAdminRole",
          "type": "bytes32"
        },
        {
          "indexed": true,
          "internalType": "bytes32",
          "name": "newAdminRole",
          "type": "bytes32"
        }
      ],
      "name": "RoleAdminChanged",
      "type": "event"
    },
    {
      "anonymous": false,
      "inputs": [
        {
          "indexed": true,
          "internalType": "bytes32",
          "name": "role",
          "type": "bytes32"
        },
        {
          "indexed": true,
          "internalType": "address",
          "name": "account",
          "type": "address"
        },
        {
          "indexed": true,
          "internalType": "address",
          "name": "sender",
          "type": "address"
        }
      ],
      "name": "RoleGranted",
      "type": "event"
    },
    {
      "anonymous": false,
      "inputs": [
        {
          "indexed": true,
          "internalType": "bytes32",
          "name": "role",
          "type": "bytes32"
        },
        {
          "indexed": true,
          "internalType": "address",
          "name": "account",
          "type": "address"
        },
        {
          "indexed": true,
          "internalType": "address",
          "name": "sender",
          "type": "address"
        }
      ],
      "name": "RoleRevoked",
      "type": "event"
    },
    {
      "anonymous": false,
      "inputs": [
        {
          "indexed": true,
          "internalType": "address",
          "name": "from",
          "type": "address"
        },
        {
          "indexed": true,
          "internalType": "address",
          "name": "to",
          "type": "address"
        },
        {
          "indexed": true,
          "internalType": "uint256",
          "name": "tokenId",
          "type": "uint256"
        }
      ],
      "name": "Transfer",
      "type": "event"
    },
    {
      "inputs": [],
      "name": "DEFAULT_ADMIN_ROLE",
      "outputs": [
        {
          "internalType": "bytes32",
          "name": "",
          "type": "bytes32"
        }
      ],
      "stateMutability": "view",
      "type": "function"
    },
    {
      "inputs": [],
      "name": "INVERSE_BASIS_POINT",
      "outputs": [
        {
          "internalType": "uint16",
          "name": "",
          "type": "uint16"
        }
      ],
      "stateMutability": "view",
      "type": "function"
    },
    {
      "inputs": [],
      "name": "NFT_MINTER_ROLE",
      "outputs": [
        {
          "internalType": "bytes32",
          "name": "",
          "type": "bytes32"
        }
      ],
      "stateMutability": "view",
      "type": "function"
    },
    {
      "inputs": [
        {
          "internalType": "address",
          "name": "to",
          "type": "address"
        },
        {
          "internalType": "uint256",
          "name": "tokenId",
          "type": "uint256"
        }
      ],
      "name": "approve",
      "outputs": [],
      "stateMutability": "nonpayable",
      "type": "function"
    },
    {
      "inputs": [
        {
          "internalType": "address",
          "name": "owner",
          "type": "address"
        }
      ],
      "name": "balanceOf",
      "outputs": [
        {
          "internalType": "uint256",
          "name": "",
          "type": "uint256"
        }
      ],
      "stateMutability": "view",
      "type": "function"
    },
    {
      "inputs": [
        {
          "internalType": "uint256",
          "name": "tokenId",
          "type": "uint256"
        }
      ],
      "name": "burn",
      "outputs": [],
      "stateMutability": "nonpayable",
      "type": "function"
    },
    {
      "inputs": [
        {
          "internalType": "uint256",
          "name": "tokenId",
          "type": "uint256"
        }
      ],
      "name": "exists",
      "outputs": [
        {
          "internalType": "bool",
          "name": "",
          "type": "bool"
        }
      ],
      "stateMutability": "view",
      "type": "function"
    },
    {
      "inputs": [
        {
          "internalType": "uint256",
          "name": "tokenId",
          "type": "uint256"
        }
      ],
      "name": "getApproved",
      "outputs": [
        {
          "internalType": "address",
          "name": "",
          "type": "address"
        }
      ],
      "stateMutability": "view",
      "type": "function"
    },
    {
      "inputs": [
        {
          "internalType": "bytes32",
          "name": "role",
          "type": "bytes32"
        }
      ],
      "name": "getRoleAdmin",
      "outputs": [
        {
          "internalType": "bytes32",
          "name": "",
          "type": "bytes32"
        }
      ],
      "stateMutability": "view",
      "type": "function"
    },
    {
      "inputs": [
        {
          "internalType": "bytes32",
          "name": "role",
          "type": "bytes32"
        },
        {
          "internalType": "address",
          "name": "account",
          "type": "address"
        }
      ],
      "name": "grantRole",
      "outputs": [],
      "stateMutability": "nonpayable",
      "type": "function"
    },
    {
      "inputs": [
        {
          "internalType": "bytes32",
          "name": "role",
          "type": "bytes32"
        },
        {
          "internalType": "address",
          "name": "account",
          "type": "address"
        }
      ],
      "name": "hasRole",
      "outputs": [
        {
          "internalType": "bool",
          "name": "",
          "type": "bool"
        }
      ],
      "stateMutability": "view",
      "type": "function"
    },
    {
      "inputs": [
        {
          "internalType": "address",
          "name": "owner",
          "type": "address"
        },
        {
          "internalType": "address",
          "name": "operator",
          "type": "address"
        }
      ],
      "name": "isApprovedForAll",
      "outputs": [
        {
          "internalType": "bool",
          "name": "",
          "type": "bool"
        }
      ],
      "stateMutability": "view",
      "type": "function"
    },
    {
      "inputs": [
        {
          "internalType": "uint256",
          "name": "tokenId",
          "type": "uint256"
        },
        {
          "internalType": "address",
          "name": "to",
          "type": "address"
        },
        {
          "internalType": "address",
          "name": "royaltyRecipient",
          "type": "address"
        },
        {
          "internalType": "uint256",
          "name": "feeRate",
          "type": "uint256"
        },
        {
          "internalType": "string",
          "name": "tokenURI",
          "type": "string"
        }
      ],
      "name": "mint",
      "outputs": [],
      "stateMutability": "nonpayable",
      "type": "function"
    },
    {
      "inputs": [],
      "name": "name",
      "outputs": [
        {
          "internalType": "string",
          "name": "",
          "type": "string"
        }
      ],
      "stateMutability": "view",
      "type": "function"
    },
    {
      "inputs": [
        {
          "internalType": "uint256",
          "name": "tokenId",
          "type": "uint256"
        }
      ],
      "name": "ownerOf",
      "outputs": [
        {
          "internalType": "address",
          "name": "",
          "type": "address"
        }
      ],
      "stateMutability": "view",
      "type": "function"
    },
    {
      "inputs": [
        {
          "internalType": "bytes32",
          "name": "role",
          "type": "bytes32"
        },
        {
          "internalType": "address",
          "name": "account",
          "type": "address"
        }
      ],
      "name": "renounceRole",
      "outputs": [],
      "stateMutability": "nonpayable",
      "type": "function"
    },
    {
      "inputs": [
        {
          "internalType": "bytes32",
          "name": "role",
          "type": "bytes32"
        },
        {
          "internalType": "address",
          "name": "account",
          "type": "address"
        }
      ],
      "name": "revokeRole",
      "outputs": [],
      "stateMutability": "nonpayable",
      "type": "function"
    },
    {
      "inputs": [
        {
          "internalType": "uint256",
          "name": "",
          "type": "uint256"
        }
      ],
      "name": "royalties",
      "outputs": [
        {
          "internalType": "address",
          "name": "recipient",
          "type": "address"
        },
        {
          "internalType": "uint16",
          "name": "feeRate",
          "type": "uint16"
        }
      ],
      "stateMutability": "view",
      "type": "function"
    },
    {
      "inputs": [
        {
          "internalType": "uint256",
          "name": "tokenId",
          "type": "uint256"
        },
        {
          "internalType": "uint256",
          "name": "salePrice",
          "type": "uint256"
        }
      ],
      "name": "royaltyInfo",
      "outputs": [
        {
          "internalType": "address",
          "name": "receiver",
          "type": "address"
        },
        {
          "internalType": "uint256",
          "name": "royaltyFeeRate",
          "type": "uint256"
        }
      ],
      "stateMutability": "view",
      "type": "function"
    },
    {
      "inputs": [
        {
          "internalType": "uint256",
          "name": "tokenId",
          "type": "uint256"
        },
        {
          "internalType": "address",
          "name": "to",
          "type": "address"
        },
        {
          "internalType": "address",
          "name": "royaltyRecipient",
          "type": "address"
        },
        {
          "internalType": "uint256",
          "name": "feeRate",
          "type": "uint256"
        },
        {
          "internalType": "string",
          "name": "tokenURI",
          "type": "string"
        }
      ],
      "name": "safeMint",
      "outputs": [],
      "stateMutability": "nonpayable",
      "type": "function"
    },
    {
      "inputs": [
        {
          "internalType": "address",
          "name": "from",
          "type": "address"
        },
        {
          "internalType": "address",
          "name": "to",
          "type": "address"
        },
        {
          "internalType": "uint256",
          "name": "tokenId",
          "type": "uint256"
        }
      ],
      "name": "safeTransferFrom",
      "outputs": [],
      "stateMutability": "nonpayable",
      "type": "function"
    },
    {
      "inputs": [
        {
          "internalType": "address",
          "name": "from",
          "type": "address"
        },
        {
          "internalType": "address",
          "name": "to",
          "type": "address"
        },
        {
          "internalType": "uint256",
          "name": "tokenId",
          "type": "uint256"
        },
        {
          "internalType": "bytes",
          "name": "_data",
          "type": "bytes"
        }
      ],
      "name": "safeTransferFrom",
      "outputs": [],
      "stateMutability": "nonpayable",
      "type": "function"
    },
    {
      "inputs": [
        {
          "internalType": "address",
          "name": "operator",
          "type": "address"
        },
        {
          "internalType": "bool",
          "name": "approved",
          "type": "bool"
        }
      ],
      "name": "setApprovalForAll",
      "outputs": [],
      "stateMutability": "nonpayable",
      "type": "function"
    },
    {
      "inputs": [
        {
          "internalType": "bytes32",
          "name": "role",
          "type": "bytes32"
        },
        {
          "internalType": "address",
          "name": "account",
          "type": "address"
        }
      ],
      "name": "setupRole",
      "outputs": [],
      "stateMutability": "nonpayable",
      "type": "function"
    },
    {
      "inputs": [
        {
          "internalType": "bytes4",
          "name": "interfaceId",
          "type": "bytes4"
        }
      ],
      "name": "supportsInterface",
      "outputs": [
        {
          "internalType": "bool",
          "name": "",
          "type": "bool"
        }
      ],
      "stateMutability": "view",
      "type": "function"
    },
    {
      "inputs": [],
      "name": "symbol",
      "outputs": [
        {
          "internalType": "string",
          "name": "",
          "type": "string"
        }
      ],
      "stateMutability": "view",
      "type": "function"
    },
    {
      "inputs": [
        {
          "internalType": "uint256",
          "name": "tokenId",
          "type": "uint256"
        }
      ],
      "name": "tokenURI",
      "outputs": [
        {
          "internalType": "string",
          "name": "",
          "type": "string"
        }
      ],
      "stateMutability": "view",
      "type": "function"
    },
    {
      "inputs": [
        {
          "internalType": "address",
          "name": "from",
          "type": "address"
        },
        {
          "internalType": "address",
          "name": "to",
          "type": "address"
        },
        {
          "internalType": "uint256",
          "name": "tokenId",
          "type": "uint256"
        }
      ],
      "name": "transferFrom",
      "outputs": [],
      "stateMutability": "nonpayable",
      "type": "function"
    }
  ],
  "bytecode": "0x60806040523480156200001157600080fd5b5060405162004a1c38038062004a1c833981810160405281019062000037919062000614565b8181816001908051906020019062000051929190620003c7565b5080600290805190602001906200006a929190620003c7565b505050620000916000801b620000856200012760201b60201c565b6200012f60201b60201c565b620000a96000801b6000801b6200014560201b60201c565b620000ea7f3a5b873628a2c49bf313473942acc8932f6f84c76b74bf3db0e4d8b51277a623620000de6200012760201b60201c565b620001a860201b60201c565b6200011f7f3a5b873628a2c49bf313473942acc8932f6f84c76b74bf3db0e4d8b51277a6236000801b6200014560201b60201c565b505062000781565b600033905090565b6200014182826200024d60201b60201c565b5050565b600062000158836200033e60201b60201c565b905081600080858152602001908152602001600020600101819055508181847fbd79b86ffe0ab8e8776151514217cd7cacd52c909f66475c3af44e129f0b00ff60405160405180910390a4505050565b620001c982620001bd6200012760201b60201c565b6200035d60201b60201c565b80620001f55750620001f46000801b620001e86200012760201b60201c565b6200035d60201b60201c565b5b62000237576040517f08c379a00000000000000000000000000000000000000000000000000000000081526004016200022e90620006fa565b60405180910390fd5b6200024982826200012f60201b60201c565b5050565b6200025f82826200035d60201b60201c565b6200033a57600160008084815260200190815260200160002060000160008373ffffffffffffffffffffffffffffffffffffffff1673ffffffffffffffffffffffffffffffffffffffff16815260200190815260200160002060006101000a81548160ff021916908315150217905550620002df6200012760201b60201c565b73ffffffffffffffffffffffffffffffffffffffff168173ffffffffffffffffffffffffffffffffffffffff16837f2f8788117e7eff1d82e926ec794901d17c78024a50270940304540a733656f0d60405160405180910390a45b5050565b6000806000838152602001908152602001600020600101549050919050565b600080600084815260200190815260200160002060000160008373ffffffffffffffffffffffffffffffffffffffff1673ffffffffffffffffffffffffffffffffffffffff16815260200190815260200160002060009054906101000a900460ff16905092915050565b828054620003d5906200074b565b90600052602060002090601f016020900481019282620003f9576000855562000445565b82601f106200041457805160ff191683800117855562000445565b8280016001018555821562000445579182015b828111156200044457825182559160200191906001019062000427565b5b50905062000454919062000458565b5090565b5b808211156200047357600081600090555060010162000459565b5090565b6000604051905090565b600080fd5b600080fd5b600080fd5b600080fd5b6000601f19601f8301169050919050565b7f4e487b7100000000000000000000000000000000000000000000000000000000600052604160045260246000fd5b620004e08262000495565b810181811067ffffffffffffffff82111715620005025762000501620004a6565b5b80604052505050565b60006200051762000477565b9050620005258282620004d5565b919050565b600067ffffffffffffffff821115620005485762000547620004a6565b5b620005538262000495565b9050602081019050919050565b60005b838110156200058057808201518184015260208101905062000563565b8381111562000590576000848401525b50505050565b6000620005ad620005a7846200052a565b6200050b565b905082815260208101848484011115620005cc57620005cb62000490565b5b620005d984828562000560565b509392505050565b600082601f830112620005f957620005f86200048b565b5b81516200060b84826020860162000596565b91505092915050565b600080604083850312156200062e576200062d62000481565b5b600083015167ffffffffffffffff8111156200064f576200064e62000486565b5b6200065d85828601620005e1565b925050602083015167ffffffffffffffff81111562000681576200068062000486565b5b6200068f85828601620005e1565b9150509250929050565b600082825260208201905092915050565b7f6e6f20616363657373207065726d697373696f6e000000000000000000000000600082015250565b6000620006e260148362000699565b9150620006ef82620006aa565b602082019050919050565b600060208201905081810360008301526200071581620006d3565b9050919050565b7f4e487b7100000000000000000000000000000000000000000000000000000000600052602260045260246000fd5b600060028204905060018216806200076457607f821691505b602082108114156200077b576200077a6200071c565b5b50919050565b61428b80620007916000396000f3fe608060405234801561001057600080fd5b50600436106101c45760003560e01c80637f77f574116100f9578063c0833ee411610097578063d547741f11610071578063d547741f1461053d578063e985e9c514610559578063ea65ee0514610589578063fa82ac76146105a5576101c4565b8063c0833ee4146104d1578063c87b56dd146104ef578063cae6047f1461051f576101c4565b8063a217fddf116100d3578063a217fddf1461045f578063a22cb4651461047d578063aea716ae14610499578063b88d4fde146104b5576101c4565b80637f77f574146103e057806391d148541461041157806395d89b4114610441576101c4565b80632f2ff15d1161016657806342966c681161014057806342966c68146103345780634f558e79146103505780636352211e1461038057806370a08231146103b0576101c4565b80632f2ff15d146102e057806336568abe146102fc57806342842e0e14610318576101c4565b8063095ea7b3116101a2578063095ea7b31461024757806323b872dd14610263578063248a9ca31461027f5780632a55205a146102af576101c4565b806301ffc9a7146101c957806306fdde03146101f9578063081812fc14610217575b600080fd5b6101e360048036038101906101de919061295e565b6105c1565b6040516101f091906129a6565b60405180910390f35b6102016105d3565b60405161020e9190612a5a565b60405180910390f35b610231600480360381019061022c9190612ab2565b610665565b60405161023e9190612b20565b60405180910390f35b610261600480360381019061025c9190612b67565b6106ea565b005b61027d60048036038101906102789190612ba7565b610802565b005b61029960048036038101906102949190612c30565b610862565b6040516102a69190612c6c565b60405180910390f35b6102c960048036038101906102c49190612c87565b610881565b6040516102d7929190612cd6565b60405180910390f35b6102fa60048036038101906102f59190612cff565b610952565b005b61031660048036038101906103119190612cff565b61097b565b005b610332600480360381019061032d9190612ba7565b6109fe565b005b61034e60048036038101906103499190612ab2565b610a1e565b005b61036a60048036038101906103659190612ab2565b610a73565b60405161037791906129a6565b60405180910390f35b61039a60048036038101906103959190612ab2565b610a85565b6040516103a79190612b20565b60405180910390f35b6103ca60048036038101906103c59190612d3f565b610b37565b6040516103d79190612d6c565b60405180910390f35b6103fa60048036038101906103f59190612ab2565b610bef565b604051610408929190612da4565b60405180910390f35b61042b60048036038101906104269190612cff565b610c41565b60405161043891906129a6565b60405180910390f35b610449610cab565b6040516104569190612a5a565b60405180910390f35b610467610d3d565b6040516104749190612c6c565b60405180910390f35b61049760048036038101906104929190612df9565b610d44565b005b6104b360048036038101906104ae9190612f6e565b610d5a565b005b6104cf60048036038101906104ca91906130a6565b610dfc565b005b6104d9610e5e565b6040516104e69190612c6c565b60405180910390f35b61050960048036038101906105049190612ab2565b610e82565b6040516105169190612a5a565b60405180910390f35b610527610fd4565b6040516105349190613129565b60405180910390f35b61055760048036038101906105529190612cff565b610fda565b005b610573600480360381019061056e9190613144565b611003565b60405161058091906129a6565b60405180910390f35b6105a3600480360381019061059e9190612f6e565b611097565b005b6105bf60048036038101906105ba9190612cff565b61117c565b005b60006105cc826111f5565b9050919050565b6060600180546105e2906131b3565b80601f016020809104026020016040519081016040528092919081815260200182805461060e906131b3565b801561065b5780601f106106305761010080835404028352916020019161065b565b820191906000526020600020905b81548152906001019060200180831161063e57829003601f168201915b5050505050905090565b60006106708261126f565b6106af576040517f08c379a00000000000000000000000000000000000000000000000000000000081526004016106a690613257565b60405180910390fd5b6005600083815260200190815260200160002060009054906101000a900473ffffffffffffffffffffffffffffffffffffffff169050919050565b60006106f582610a85565b90508073ffffffffffffffffffffffffffffffffffffffff168373ffffffffffffffffffffffffffffffffffffffff161415610766576040517f08c379a000000000000000000000000000000000000000000000000000000000815260040161075d906132e9565b60405180910390fd5b8073ffffffffffffffffffffffffffffffffffffffff166107856112db565b73ffffffffffffffffffffffffffffffffffffffff1614806107b457506107b3816107ae6112db565b611003565b5b6107f3576040517f08c379a00000000000000000000000000000000000000000000000000000000081526004016107ea9061337b565b60405180910390fd5b6107fd83836112e3565b505050565b61081361080d6112db565b8261139c565b610852576040517f08c379a00000000000000000000000000000000000000000000000000000000081526004016108499061340d565b60405180910390fd5b61085d83838361147a565b505050565b6000806000838152602001908152602001600020600101549050919050565b6000806000600860008681526020019081526020016000206040518060400160405290816000820160009054906101000a900473ffffffffffffffffffffffffffffffffffffffff1673ffffffffffffffffffffffffffffffffffffffff1673ffffffffffffffffffffffffffffffffffffffff1681526020016000820160149054906101000a900461ffff1661ffff1661ffff168152505090508060000151925061271061ffff16816020015161ffff168561093e919061345c565b61094891906134e5565b9150509250929050565b61095b82610862565b61096c816109676112db565b6116d6565b6109768383611773565b505050565b6109836112db565b73ffffffffffffffffffffffffffffffffffffffff168173ffffffffffffffffffffffffffffffffffffffff16146109f0576040517f08c379a00000000000000000000000000000000000000000000000000000000081526004016109e790613588565b60405180910390fd5b6109fa8282611853565b5050565b610a1983838360405180602001604052806000815250610dfc565b505050565b610a28338261139c565b610a67576040517f08c379a0000000000000000000000000000000000000000000000000000000008152600401610a5e9061361a565b60405180910390fd5b610a7081611934565b50565b6000610a7e8261126f565b9050919050565b6000806003600084815260200190815260200160002060009054906101000a900473ffffffffffffffffffffffffffffffffffffffff169050600073ffffffffffffffffffffffffffffffffffffffff168173ffffffffffffffffffffffffffffffffffffffff161415610b2e576040517f08c379a0000000000000000000000000000000000000000000000000000000008152600401610b25906136ac565b60405180910390fd5b80915050919050565b60008073ffffffffffffffffffffffffffffffffffffffff168273ffffffffffffffffffffffffffffffffffffffff161415610ba8576040517f08c379a0000000000000000000000000000000000000000000000000000000008152600401610b9f9061373e565b60405180910390fd5b600460008373ffffffffffffffffffffffffffffffffffffffff1673ffffffffffffffffffffffffffffffffffffffff168152602001908152602001600020549050919050565b60086020528060005260406000206000915090508060000160009054906101000a900473ffffffffffffffffffffffffffffffffffffffff16908060000160149054906101000a900461ffff16905082565b600080600084815260200190815260200160002060000160008373ffffffffffffffffffffffffffffffffffffffff1673ffffffffffffffffffffffffffffffffffffffff16815260200190815260200160002060009054906101000a900460ff16905092915050565b606060028054610cba906131b3565b80601f0160208091040260200160405190810160405280929190818152602001828054610ce6906131b3565b8015610d335780601f10610d0857610100808354040283529160200191610d33565b820191906000526020600020905b815481529060010190602001808311610d1657829003601f168201915b5050505050905090565b6000801b81565b610d56610d4f6112db565b8383611987565b5050565b7f3a5b873628a2c49bf313473942acc8932f6f84c76b74bf3db0e4d8b51277a623610d8c81610d876112db565b610c41565b610dcb576040517f08c379a0000000000000000000000000000000000000000000000000000000008152600401610dc2906137aa565b60405180910390fd5b610dd58587611af4565b6000831115610dea57610de9868585611b12565b5b610df48683611c27565b505050505050565b610e0d610e076112db565b8361139c565b610e4c576040517f08c379a0000000000000000000000000000000000000000000000000000000008152600401610e439061340d565b60405180910390fd5b610e5884848484611c9b565b50505050565b7f3a5b873628a2c49bf313473942acc8932f6f84c76b74bf3db0e4d8b51277a62381565b6060610e8d8261126f565b610ecc576040517f08c379a0000000000000000000000000000000000000000000000000000000008152600401610ec39061383c565b60405180910390fd5b6000600760008481526020019081526020016000208054610eec906131b3565b80601f0160208091040260200160405190810160405280929190818152602001828054610f18906131b3565b8015610f655780601f10610f3a57610100808354040283529160200191610f65565b820191906000526020600020905b815481529060010190602001808311610f4857829003601f168201915b505050505090506000610f76611cf7565b9050600081511415610f8c578192505050610fcf565b600082511115610fc1578082604051602001610fa9929190613898565b60405160208183030381529060405292505050610fcf565b610fca84611d0e565b925050505b919050565b61271081565b610fe382610862565b610ff481610fef6112db565b6116d6565b610ffe8383611853565b505050565b6000600660008473ffffffffffffffffffffffffffffffffffffffff1673ffffffffffffffffffffffffffffffffffffffff16815260200190815260200160002060008373ffffffffffffffffffffffffffffffffffffffff1673ffffffffffffffffffffffffffffffffffffffff16815260200190815260200160002060009054906101000a900460ff16905092915050565b7f3a5b873628a2c49bf313473942acc8932f6f84c76b74bf3db0e4d8b51277a6236110c9816110c46112db565b610c41565b611108576040517f08c379a00000000000000000000000000000000000000000000000000000000081526004016110ff906137aa565b60405180910390fd5b6111278573ffffffffffffffffffffffffffffffffffffffff16611db5565b15611167576040517f08c379a000000000000000000000000000000000000000000000000000000000815260040161115e9061392e565b60405180910390fd5b6111748686868686610d5a565b505050505050565b61118d826111886112db565b610c41565b806111a857506111a76000801b6111a26112db565b610c41565b5b6111e7576040517f08c379a00000000000000000000000000000000000000000000000000000000081526004016111de906137aa565b60405180910390fd5b6111f18282611dc8565b5050565b60007f2a55205a000000000000000000000000000000000000000000000000000000007bffffffffffffffffffffffffffffffffffffffffffffffffffffffff1916827bffffffffffffffffffffffffffffffffffffffffffffffffffffffff19161480611268575061126782611dd6565b5b9050919050565b60008073ffffffffffffffffffffffffffffffffffffffff166003600084815260200190815260200160002060009054906101000a900473ffffffffffffffffffffffffffffffffffffffff1673ffffffffffffffffffffffffffffffffffffffff1614159050919050565b600033905090565b816005600083815260200190815260200160002060006101000a81548173ffffffffffffffffffffffffffffffffffffffff021916908373ffffffffffffffffffffffffffffffffffffffff160217905550808273ffffffffffffffffffffffffffffffffffffffff1661135683610a85565b73ffffffffffffffffffffffffffffffffffffffff167f8c5be1e5ebec7d5bd14f71427d1e84f3dd0314c0f7b2291e5b200ac8c7c3b92560405160405180910390a45050565b60006113a78261126f565b6113e6576040517f08c379a00000000000000000000000000000000000000000000000000000000081526004016113dd906139c0565b60405180910390fd5b60006113f183610a85565b90508073ffffffffffffffffffffffffffffffffffffffff168473ffffffffffffffffffffffffffffffffffffffff16148061146057508373ffffffffffffffffffffffffffffffffffffffff1661144884610665565b73ffffffffffffffffffffffffffffffffffffffff16145b8061147157506114708185611003565b5b91505092915050565b8273ffffffffffffffffffffffffffffffffffffffff1661149a82610a85565b73ffffffffffffffffffffffffffffffffffffffff16146114f0576040517f08c379a00000000000000000000000000000000000000000000000000000000081526004016114e790613a52565b60405180910390fd5b600073ffffffffffffffffffffffffffffffffffffffff168273ffffffffffffffffffffffffffffffffffffffff161415611560576040517f08c379a000000000000000000000000000000000000000000000000000000000815260040161155790613ae4565b60405180910390fd5b61156b838383611eb8565b6115766000826112e3565b6001600460008573ffffffffffffffffffffffffffffffffffffffff1673ffffffffffffffffffffffffffffffffffffffff16815260200190815260200160002060008282546115c69190613b04565b925050819055506001600460008473ffffffffffffffffffffffffffffffffffffffff1673ffffffffffffffffffffffffffffffffffffffff168152602001908152602001600020600082825461161d9190613b38565b92505081905550816003600083815260200190815260200160002060006101000a81548173ffffffffffffffffffffffffffffffffffffffff021916908373ffffffffffffffffffffffffffffffffffffffff160217905550808273ffffffffffffffffffffffffffffffffffffffff168473ffffffffffffffffffffffffffffffffffffffff167fddf252ad1be2c89b69c2b068fc378daa952ba7f163c4a11628f55a4df523b3ef60405160405180910390a4505050565b6116e08282610c41565b61176f576117058173ffffffffffffffffffffffffffffffffffffffff166014611ebd565b6117138360001c6020611ebd565b604051602001611724929190613c26565b6040516020818303038152906040526040517f08c379a00000000000000000000000000000000000000000000000000000000081526004016117669190612a5a565b60405180910390fd5b5050565b61177d8282610c41565b61184f57600160008084815260200190815260200160002060000160008373ffffffffffffffffffffffffffffffffffffffff1673ffffffffffffffffffffffffffffffffffffffff16815260200190815260200160002060006101000a81548160ff0219169083151502179055506117f46112db565b73ffffffffffffffffffffffffffffffffffffffff168173ffffffffffffffffffffffffffffffffffffffff16837f2f8788117e7eff1d82e926ec794901d17c78024a50270940304540a733656f0d60405160405180910390a45b5050565b61185d8282610c41565b1561193057600080600084815260200190815260200160002060000160008373ffffffffffffffffffffffffffffffffffffffff1673ffffffffffffffffffffffffffffffffffffffff16815260200190815260200160002060006101000a81548160ff0219169083151502179055506118d56112db565b73ffffffffffffffffffffffffffffffffffffffff168173ffffffffffffffffffffffffffffffffffffffff16837ff6391f5c32d9c69d2a47ea670b442974b53935d1edc7fd64eb21e047a839171b60405160405180910390a45b5050565b61193d816120f9565b600060076000838152602001908152602001600020805461195d906131b3565b90501461198457600760008281526020019081526020016000206000611983919061280f565b5b50565b8173ffffffffffffffffffffffffffffffffffffffff168373ffffffffffffffffffffffffffffffffffffffff1614156119f6576040517f08c379a00000000000000000000000000000000000000000000000000000000081526004016119ed90613cac565b60405180910390fd5b80600660008573ffffffffffffffffffffffffffffffffffffffff1673ffffffffffffffffffffffffffffffffffffffff16815260200190815260200160002060008473ffffffffffffffffffffffffffffffffffffffff1673ffffffffffffffffffffffffffffffffffffffff16815260200190815260200160002060006101000a81548160ff0219169083151502179055508173ffffffffffffffffffffffffffffffffffffffff168373ffffffffffffffffffffffffffffffffffffffff167f17307eab39ab6107e8899845ad3d59bd9653f200f220920489ca2b5937696c3183604051611ae791906129a6565b60405180910390a3505050565b611b0e82826040518060200160405280600081525061220a565b5050565b600a6003612710611b239190613ccc565b611b2d9190613d08565b61ffff16811115611b73576040517f08c379a0000000000000000000000000000000000000000000000000000000008152600401611b6a90613d85565b60405180910390fd5b60405180604001604052808373ffffffffffffffffffffffffffffffffffffffff1681526020018261ffff168152506008600085815260200190815260200160002060008201518160000160006101000a81548173ffffffffffffffffffffffffffffffffffffffff021916908373ffffffffffffffffffffffffffffffffffffffff16021790555060208201518160000160146101000a81548161ffff021916908361ffff160217905550905050505050565b611c308261126f565b611c6f576040517f08c379a0000000000000000000000000000000000000000000000000000000008152600401611c6690613e17565b60405180910390fd5b80600760008481526020019081526020016000209080519060200190611c9692919061284f565b505050565b611ca684848461147a565b611cb284848484612265565b611cf1576040517f08c379a0000000000000000000000000000000000000000000000000000000008152600401611ce890613ea9565b60405180910390fd5b50505050565b606060405180602001604052806000815250905090565b6060611d198261126f565b611d58576040517f08c379a0000000000000000000000000000000000000000000000000000000008152600401611d4f90613f3b565b60405180910390fd5b6000611d62611cf7565b90506000815111611d825760405180602001604052806000815250611dad565b80611d8c846123fc565b604051602001611d9d929190613898565b6040516020818303038152906040525b915050919050565b600080823b905060008111915050919050565b611dd28282611773565b5050565b60007f80ac58cd000000000000000000000000000000000000000000000000000000007bffffffffffffffffffffffffffffffffffffffffffffffffffffffff1916827bffffffffffffffffffffffffffffffffffffffffffffffffffffffff19161480611ea157507f5b5e139f000000000000000000000000000000000000000000000000000000007bffffffffffffffffffffffffffffffffffffffffffffffffffffffff1916827bffffffffffffffffffffffffffffffffffffffffffffffffffffffff1916145b80611eb15750611eb08261255d565b5b9050919050565b505050565b606060006002836002611ed0919061345c565b611eda9190613b38565b67ffffffffffffffff811115611ef357611ef2612e43565b5b6040519080825280601f01601f191660200182016040528015611f255781602001600182028036833780820191505090505b5090507f300000000000000000000000000000000000000000000000000000000000000081600081518110611f5d57611f5c613f5b565b5b60200101907effffffffffffffffffffffffffffffffffffffffffffffffffffffffffffff1916908160001a9053507f780000000000000000000000000000000000000000000000000000000000000081600181518110611fc157611fc0613f5b565b5b60200101907effffffffffffffffffffffffffffffffffffffffffffffffffffffffffffff1916908160001a90535060006001846002612001919061345c565b61200b9190613b38565b90505b60018111156120ab577f3031323334353637383961626364656600000000000000000000000000000000600f86166010811061204d5761204c613f5b565b5b1a60f81b82828151811061206457612063613f5b565b5b60200101907effffffffffffffffffffffffffffffffffffffffffffffffffffffffffffff1916908160001a905350600485901c9450806120a490613f8a565b905061200e565b50600084146120ef576040517f08c379a00000000000000000000000000000000000000000000000000000000081526004016120e690614000565b60405180910390fd5b8091505092915050565b600061210482610a85565b905061211281600084611eb8565b61211d6000836112e3565b6001600460008373ffffffffffffffffffffffffffffffffffffffff1673ffffffffffffffffffffffffffffffffffffffff168152602001908152602001600020600082825461216d9190613b04565b925050819055506003600083815260200190815260200160002060006101000a81549073ffffffffffffffffffffffffffffffffffffffff021916905581600073ffffffffffffffffffffffffffffffffffffffff168273ffffffffffffffffffffffffffffffffffffffff167fddf252ad1be2c89b69c2b068fc378daa952ba7f163c4a11628f55a4df523b3ef60405160405180910390a45050565b61221483836125d7565b6122216000848484612265565b612260576040517f08c379a000000000000000000000000000000000000000000000000000000000815260040161225790613ea9565b60405180910390fd5b505050565b60006122868473ffffffffffffffffffffffffffffffffffffffff16611db5565b156123ef578373ffffffffffffffffffffffffffffffffffffffff1663150b7a026122af6112db565b8786866040518563ffffffff1660e01b81526004016122d19493929190614075565b602060405180830381600087803b1580156122eb57600080fd5b505af192505050801561231c57506040513d601f19601f8201168201806040525081019061231991906140d6565b60015b61239f573d806000811461234c576040519150601f19603f3d011682016040523d82523d6000602084013e612351565b606091505b50600081511415612397576040517f08c379a000000000000000000000000000000000000000000000000000000000815260040161238e90613ea9565b60405180910390fd5b805181602001fd5b63150b7a0260e01b7bffffffffffffffffffffffffffffffffffffffffffffffffffffffff1916817bffffffffffffffffffffffffffffffffffffffffffffffffffffffff1916149150506123f4565b600190505b949350505050565b60606000821415612444576040518060400160405280600181526020017f30000000000000000000000000000000000000000000000000000000000000008152509050612558565b600082905060005b6000821461247657808061245f90614103565b915050600a8261246f91906134e5565b915061244c565b60008167ffffffffffffffff81111561249257612491612e43565b5b6040519080825280601f01601f1916602001820160405280156124c45781602001600182028036833780820191505090505b5090505b60008514612551576001826124dd9190613b04565b9150600a856124ec919061414c565b60306124f89190613b38565b60f81b81838151811061250e5761250d613f5b565b5b60200101907effffffffffffffffffffffffffffffffffffffffffffffffffffffffffffff1916908160001a905350600a8561254a91906134e5565b94506124c8565b8093505050505b919050565b60007f7965db0b000000000000000000000000000000000000000000000000000000007bffffffffffffffffffffffffffffffffffffffffffffffffffffffff1916827bffffffffffffffffffffffffffffffffffffffffffffffffffffffff191614806125d057506125cf826127a5565b5b9050919050565b600073ffffffffffffffffffffffffffffffffffffffff168273ffffffffffffffffffffffffffffffffffffffff161415612647576040517f08c379a000000000000000000000000000000000000000000000000000000000815260040161263e906141c9565b60405180910390fd5b6126508161126f565b15612690576040517f08c379a000000000000000000000000000000000000000000000000000000000815260040161268790614235565b60405180910390fd5b61269c60008383611eb8565b6001600460008473ffffffffffffffffffffffffffffffffffffffff1673ffffffffffffffffffffffffffffffffffffffff16815260200190815260200160002060008282546126ec9190613b38565b92505081905550816003600083815260200190815260200160002060006101000a81548173ffffffffffffffffffffffffffffffffffffffff021916908373ffffffffffffffffffffffffffffffffffffffff160217905550808273ffffffffffffffffffffffffffffffffffffffff16600073ffffffffffffffffffffffffffffffffffffffff167fddf252ad1be2c89b69c2b068fc378daa952ba7f163c4a11628f55a4df523b3ef60405160405180910390a45050565b60007f01ffc9a7000000000000000000000000000000000000000000000000000000007bffffffffffffffffffffffffffffffffffffffffffffffffffffffff1916827bffffffffffffffffffffffffffffffffffffffffffffffffffffffff1916149050919050565b50805461281b906131b3565b6000825580601f1061282d575061284c565b601f01602090049060005260206000209081019061284b91906128d5565b5b50565b82805461285b906131b3565b90600052602060002090601f01602090048101928261287d57600085556128c4565b82601f1061289657805160ff19168380011785556128c4565b828001600101855582156128c4579182015b828111156128c35782518255916020019190600101906128a8565b5b5090506128d191906128d5565b5090565b5b808211156128ee5760008160009055506001016128d6565b5090565b6000604051905090565b600080fd5b600080fd5b60007fffffffff0000000000000000000000000000000000000000000000000000000082169050919050565b61293b81612906565b811461294657600080fd5b50565b60008135905061295881612932565b92915050565b600060208284031215612974576129736128fc565b5b600061298284828501612949565b91505092915050565b60008115159050919050565b6129a08161298b565b82525050565b60006020820190506129bb6000830184612997565b92915050565b600081519050919050565b600082825260208201905092915050565b60005b838110156129fb5780820151818401526020810190506129e0565b83811115612a0a576000848401525b50505050565b6000601f19601f8301169050919050565b6000612a2c826129c1565b612a3681856129cc565b9350612a468185602086016129dd565b612a4f81612a10565b840191505092915050565b60006020820190508181036000830152612a748184612a21565b905092915050565b6000819050919050565b612a8f81612a7c565b8114612a9a57600080fd5b50565b600081359050612aac81612a86565b92915050565b600060208284031215612ac857612ac76128fc565b5b6000612ad684828501612a9d565b91505092915050565b600073ffffffffffffffffffffffffffffffffffffffff82169050919050565b6000612b0a82612adf565b9050919050565b612b1a81612aff565b82525050565b6000602082019050612b356000830184612b11565b92915050565b612b4481612aff565b8114612b4f57600080fd5b50565b600081359050612b6181612b3b565b92915050565b60008060408385031215612b7e57612b7d6128fc565b5b6000612b8c85828601612b52565b9250506020612b9d85828601612a9d565b9150509250929050565b600080600060608486031215612bc057612bbf6128fc565b5b6000612bce86828701612b52565b9350506020612bdf86828701612b52565b9250506040612bf086828701612a9d565b9150509250925092565b6000819050919050565b612c0d81612bfa565b8114612c1857600080fd5b50565b600081359050612c2a81612c04565b92915050565b600060208284031215612c4657612c456128fc565b5b6000612c5484828501612c1b565b91505092915050565b612c6681612bfa565b82525050565b6000602082019050612c816000830184612c5d565b92915050565b60008060408385031215612c9e57612c9d6128fc565b5b6000612cac85828601612a9d565b9250506020612cbd85828601612a9d565b9150509250929050565b612cd081612a7c565b82525050565b6000604082019050612ceb6000830185612b11565b612cf86020830184612cc7565b9392505050565b60008060408385031215612d1657612d156128fc565b5b6000612d2485828601612c1b565b9250506020612d3585828601612b52565b9150509250929050565b600060208284031215612d5557612d546128fc565b5b6000612d6384828501612b52565b91505092915050565b6000602082019050612d816000830184612cc7565b92915050565b600061ffff82169050919050565b612d9e81612d87565b82525050565b6000604082019050612db96000830185612b11565b612dc66020830184612d95565b9392505050565b612dd68161298b565b8114612de157600080fd5b50565b600081359050612df381612dcd565b92915050565b60008060408385031215612e1057612e0f6128fc565b5b6000612e1e85828601612b52565b9250506020612e2f85828601612de4565b9150509250929050565b600080fd5b600080fd5b7f4e487b7100000000000000000000000000000000000000000000000000000000600052604160045260246000fd5b612e7b82612a10565b810181811067ffffffffffffffff82111715612e9a57612e99612e43565b5b80604052505050565b6000612ead6128f2565b9050612eb98282612e72565b919050565b600067ffffffffffffffff821115612ed957612ed8612e43565b5b612ee282612a10565b9050602081019050919050565b82818337600083830152505050565b6000612f11612f0c84612ebe565b612ea3565b905082815260208101848484011115612f2d57612f2c612e3e565b5b612f38848285612eef565b509392505050565b600082601f830112612f5557612f54612e39565b5b8135612f65848260208601612efe565b91505092915050565b600080600080600060a08688031215612f8a57612f896128fc565b5b6000612f9888828901612a9d565b9550506020612fa988828901612b52565b9450506040612fba88828901612b52565b9350506060612fcb88828901612a9d565b925050608086013567ffffffffffffffff811115612fec57612feb612901565b5b612ff888828901612f40565b9150509295509295909350565b600067ffffffffffffffff8211156130205761301f612e43565b5b61302982612a10565b9050602081019050919050565b600061304961304484613005565b612ea3565b90508281526020810184848401111561306557613064612e3e565b5b613070848285612eef565b509392505050565b600082601f83011261308d5761308c612e39565b5b813561309d848260208601613036565b91505092915050565b600080600080608085870312156130c0576130bf6128fc565b5b60006130ce87828801612b52565b94505060206130df87828801612b52565b93505060406130f087828801612a9d565b925050606085013567ffffffffffffffff81111561311157613110612901565b5b61311d87828801613078565b91505092959194509250565b600060208201905061313e6000830184612d95565b92915050565b6000806040838503121561315b5761315a6128fc565b5b600061316985828601612b52565b925050602061317a85828601612b52565b9150509250929050565b7f4e487b7100000000000000000000000000000000000000000000000000000000600052602260045260246000fd5b600060028204905060018216806131cb57607f821691505b602082108114156131df576131de613184565b5b50919050565b7f4552433732313a20617070726f76656420717565727920666f72206e6f6e657860008201527f697374656e7420746f6b656e0000000000000000000000000000000000000000602082015250565b6000613241602c836129cc565b915061324c826131e5565b604082019050919050565b6000602082019050818103600083015261327081613234565b9050919050565b7f4552433732313a20617070726f76616c20746f2063757272656e74206f776e6560008201527f7200000000000000000000000000000000000000000000000000000000000000602082015250565b60006132d36021836129cc565b91506132de82613277565b604082019050919050565b60006020820190508181036000830152613302816132c6565b9050919050565b7f4552433732313a20617070726f76652063616c6c6572206973206e6f74206f7760008201527f6e6572206e6f7220617070726f76656420666f7220616c6c0000000000000000602082015250565b60006133656038836129cc565b915061337082613309565b604082019050919050565b6000602082019050818103600083015261339481613358565b9050919050565b7f4552433732313a207472616e736665722063616c6c6572206973206e6f74206f60008201527f776e6572206e6f7220617070726f766564000000000000000000000000000000602082015250565b60006133f76031836129cc565b91506134028261339b565b604082019050919050565b60006020820190508181036000830152613426816133ea565b9050919050565b7f4e487b7100000000000000000000000000000000000000000000000000000000600052601160045260246000fd5b600061346782612a7c565b915061347283612a7c565b9250817fffffffffffffffffffffffffffffffffffffffffffffffffffffffffffffffff04831182151516156134ab576134aa61342d565b5b828202905092915050565b7f4e487b7100000000000000000000000000000000000000000000000000000000600052601260045260246000fd5b60006134f082612a7c565b91506134fb83612a7c565b92508261350b5761350a6134b6565b5b828204905092915050565b7f416363657373436f6e74726f6c3a2063616e206f6e6c792072656e6f756e636560008201527f20726f6c657320666f722073656c660000000000000000000000000000000000602082015250565b6000613572602f836129cc565b915061357d82613516565b604082019050919050565b600060208201905081810360008301526135a181613565565b9050919050565b7f6e667420646f65736e2774206578697374206f722073656e646572206973206e60008201527f6f74206f776e6572206f7220617070726f766564000000000000000000000000602082015250565b60006136046034836129cc565b915061360f826135a8565b604082019050919050565b60006020820190508181036000830152613633816135f7565b9050919050565b7f4552433732313a206f776e657220717565727920666f72206e6f6e657869737460008201527f656e7420746f6b656e0000000000000000000000000000000000000000000000602082015250565b60006136966029836129cc565b91506136a18261363a565b604082019050919050565b600060208201905081810360008301526136c581613689565b9050919050565b7f4552433732313a2062616c616e636520717565727920666f7220746865207a6560008201527f726f206164647265737300000000000000000000000000000000000000000000602082015250565b6000613728602a836129cc565b9150613733826136cc565b604082019050919050565b600060208201905081810360008301526137578161371b565b9050919050565b7f6e6f20616363657373207065726d697373696f6e000000000000000000000000600082015250565b60006137946014836129cc565b915061379f8261375e565b602082019050919050565b600060208201905081810360008301526137c381613787565b9050919050565b7f45524337323155524953746f726167653a2055524920717565727920666f722060008201527f6e6f6e6578697374656e7420746f6b656e000000000000000000000000000000602082015250565b60006138266031836129cc565b9150613831826137ca565b604082019050919050565b6000602082019050818103600083015261385581613819565b9050919050565b600081905092915050565b6000613872826129c1565b61387c818561385c565b935061388c8185602086016129dd565b80840191505092915050565b60006138a48285613867565b91506138b08284613867565b91508190509392505050565b7f74686520726563697069656e7420697320636f6e74726163742c20706c65617360008201527f65207573652060736166654d696e746000000000000000000000000000000000602082015250565b60006139186030836129cc565b9150613923826138bc565b604082019050919050565b600060208201905081810360008301526139478161390b565b9050919050565b7f4552433732313a206f70657261746f7220717565727920666f72206e6f6e657860008201527f697374656e7420746f6b656e0000000000000000000000000000000000000000602082015250565b60006139aa602c836129cc565b91506139b58261394e565b604082019050919050565b600060208201905081810360008301526139d98161399d565b9050919050565b7f4552433732313a207472616e73666572206f6620746f6b656e2074686174206960008201527f73206e6f74206f776e0000000000000000000000000000000000000000000000602082015250565b6000613a3c6029836129cc565b9150613a47826139e0565b604082019050919050565b60006020820190508181036000830152613a6b81613a2f565b9050919050565b7f4552433732313a207472616e7366657220746f20746865207a65726f2061646460008201527f7265737300000000000000000000000000000000000000000000000000000000602082015250565b6000613ace6024836129cc565b9150613ad982613a72565b604082019050919050565b60006020820190508181036000830152613afd81613ac1565b9050919050565b6000613b0f82612a7c565b9150613b1a83612a7c565b925082821015613b2d57613b2c61342d565b5b828203905092915050565b6000613b4382612a7c565b9150613b4e83612a7c565b9250827fffffffffffffffffffffffffffffffffffffffffffffffffffffffffffffffff03821115613b8357613b8261342d565b5b828201905092915050565b7f416363657373436f6e74726f6c3a206163636f756e7420000000000000000000600082015250565b6000613bc460178361385c565b9150613bcf82613b8e565b601782019050919050565b7f206973206d697373696e6720726f6c6520000000000000000000000000000000600082015250565b6000613c1060118361385c565b9150613c1b82613bda565b601182019050919050565b6000613c3182613bb7565b9150613c3d8285613867565b9150613c4882613c03565b9150613c548284613867565b91508190509392505050565b7f4552433732313a20617070726f766520746f2063616c6c657200000000000000600082015250565b6000613c966019836129cc565b9150613ca182613c60565b602082019050919050565b60006020820190508181036000830152613cc581613c89565b9050919050565b6000613cd782612d87565b9150613ce283612d87565b92508161ffff0483118215151615613cfd57613cfc61342d565b5b828202905092915050565b6000613d1382612d87565b9150613d1e83612d87565b925082613d2e57613d2d6134b6565b5b828204905092915050565b7f526f79616c746965733a204d757374206265206c657373207468616e20333025600082015250565b6000613d6f6020836129cc565b9150613d7a82613d39565b602082019050919050565b60006020820190508181036000830152613d9e81613d62565b9050919050565b7f45524337323155524953746f726167653a2055524920736574206f66206e6f6e60008201527f6578697374656e7420746f6b656e000000000000000000000000000000000000602082015250565b6000613e01602e836129cc565b9150613e0c82613da5565b604082019050919050565b60006020820190508181036000830152613e3081613df4565b9050919050565b7f4552433732313a207472616e7366657220746f206e6f6e20455243373231526560008201527f63656976657220696d706c656d656e7465720000000000000000000000000000602082015250565b6000613e936032836129cc565b9150613e9e82613e37565b604082019050919050565b60006020820190508181036000830152613ec281613e86565b9050919050565b7f4552433732314d657461646174613a2055524920717565727920666f72206e6f60008201527f6e6578697374656e7420746f6b656e0000000000000000000000000000000000602082015250565b6000613f25602f836129cc565b9150613f3082613ec9565b604082019050919050565b60006020820190508181036000830152613f5481613f18565b9050919050565b7f4e487b7100000000000000000000000000000000000000000000000000000000600052603260045260246000fd5b6000613f9582612a7c565b91506000821415613fa957613fa861342d565b5b600182039050919050565b7f537472696e67733a20686578206c656e67746820696e73756666696369656e74600082015250565b6000613fea6020836129cc565b9150613ff582613fb4565b602082019050919050565b6000602082019050818103600083015261401981613fdd565b9050919050565b600081519050919050565b600082825260208201905092915050565b600061404782614020565b614051818561402b565b93506140618185602086016129dd565b61406a81612a10565b840191505092915050565b600060808201905061408a6000830187612b11565b6140976020830186612b11565b6140a46040830185612cc7565b81810360608301526140b6818461403c565b905095945050505050565b6000815190506140d081612932565b92915050565b6000602082840312156140ec576140eb6128fc565b5b60006140fa848285016140c1565b91505092915050565b600061410e82612a7c565b91507fffffffffffffffffffffffffffffffffffffffffffffffffffffffffffffffff8214156141415761414061342d565b5b600182019050919050565b600061415782612a7c565b915061416283612a7c565b925082614172576141716134b6565b5b828206905092915050565b7f4552433732313a206d696e7420746f20746865207a65726f2061646472657373600082015250565b60006141b36020836129cc565b91506141be8261417d565b602082019050919050565b600060208201905081810360008301526141e2816141a6565b9050919050565b7f4552433732313a20746f6b656e20616c7265616479206d696e74656400000000600082015250565b600061421f601c836129cc565b915061422a826141e9565b602082019050919050565b6000602082019050818103600083015261424e81614212565b905091905056fea2646970667358221220016eabf928f12598d869b6013558d1ad96531eecdf3754fd87414e152926c7bb64736f6c63430008090033",
  "linkReferences": {},
  "deployedLinkReferences": {}
}